:020000040800F2
:10000000005000201D040008C1030008CD030008B3
:10001000D5030008DD030008E50300080000000028
:10002000000000000000000000000000ED030008D8
:10003000F90300080000000005040008110400088E
:100040006D0400086D0400086D0400086D040008CC
:100050006D0400086D0400086D0400086D040008BC
:100060006D0400086D0400086D0400086D040008AC
:100070006D0400086D0400086D0400086D0400089C
:100080006D0400086D0400086D0400086D0400088C
:100090006D0400086D0400086D0400086D0400087C
:1000A0006D0400086D0400086D0400086D0400086C
:1000B0006D0400086D0400086D0400086D0400085C
:1000C0006D0400086D0400086D0400086D0400084C
:1000D0006D0400086D0400086D0400086D0400083C
:1000E0006D0400086D040008000000006D040008A5
:1000F0006D0400086D0400086D0400086D0400081C
:100100006D0400086D0400086D0400086D0400080B
:100110006D0400086D0400086D0400086D040008FB
:100120006D0400086D0400086D0400086D040008EB
:1001300010B5054C237833B9044B13B10448AFF321
:1001400000800123237010BD00000020000000008B
:10015000B804000808B5034B1BB103490348AFF3CB
:10016000008008BD0000000004000020B804000862
:1001700080B500AF154B1B68144A43F001031360B0
:10018000124B5A681149124B13404B600F4B1B68BE
:100190000E4A23F0847323F4803313600B4B1B68E7
:1001A0000A4A23F480231360084B5B68074A23F450
:1001B000FE035360054B4FF41F029A6000F00CF8E9
:1001C000044B4FF000629A6000BF80BD00100240F7
:1001D0000000FFF800ED00E080B500AF00F002F88D
:1001E00000BF80BD80B483B000AF00237B600023DC
:1001F0003B603A4B1B68394A43F480331360374BFA
:100200001B6803F400333B607B6801337B603B6811
:10021000002B03D17B68B3F5A06FF0D12F4B1B6887
:1002200003F40033002B02D001233B6001E00023E4
:100230003B603B68012B4BD1294B1B68284A43F09C
:1002400010031360264B1B68254A23F00703136035
:10025000234B1B68224A43F0020313601F4B1F4AC3
:100260005B6853601D4B1D4A5B6853601B4B5B68AA
:100270001A4A43F480635360184B5B68174A23F4AF
:100280007C135360154B5B68144A43F4E8135360C6
:10029000124B1B68114A43F08073136000BF0F4B71
:1002A0001B6803F00073002BF9D00C4B5B680B4A02
:1002B00023F003035360094B5B68084A43F00203D1
:1002C000536000BF054B5B6803F00C03082BF9D1AA
:1002D00000BF0C37BD4680BC704700BF0010024015
:1002E0000020024080B500AF224B9B69214A43F0B9
:1002F000FC0393611F4BDB691E4A43F00103D3618A
:100300001D4B1B681C4A43F00B0313604FF08043E6
:1003100001221A844FF080431B8B9BB24FF0804226
:1003200043F060039BB213834FF0804347221A854A
:100330004FF0804344F61F629A854FF0804340F2AD
:10034000DC529A864FF0804301221A804FF080439E
:100350004FF4FA629A8642F2107000F00FF84FF0F4
:1003600080434FF47A729A8642F2107000F006F8D9
:1003700000BFEBE7001002400008014080B485B0E8
:1003800000AF0346FB800023BB600023FB810DE030
:100390000023BB6002E0BB680133BB60BB6842F274
:1003A00027329342F7D9FB890133FB81FA89FB8815
:1003B0009A42EDD300BF00BF1437BD4680BC7047E2
:1003C00080B400AF00BFBD4680BC704780B400AFB2
:1003D00000BFFDE780B400AF00BFFDE780B400AF11
:1003E00000BFFDE780B400AF00BFFDE780B400AF01
:1003F00000BFBD4680BC704780B400AF00BFBD46A3
:1004000080BC704780B400AF00BFBD4680BC704761
:1004100080B400AF00BFBD4680BC70470D48854624
:10042000FFF7A6FE0C480D490D4A002302E0D45800
:10043000C4500433C4188C42F9D30A4A0A4C00232E
:1004400001E013600432A242FBD300F011F8FFF781
:1004500049FFFEE7005000200000002000000020BF
:10046000D8040008000000201C000020FEE7000067
:1004700070B500260C4D0D4C641BA410A64209D18A
:1004800000F01AF800260A4D0A4C641BA410A6427C
:1004900005D170BD55F8043B98470136EEE755F895
:1004A000043B98470136F2E7D0040008D004000866
:1004B000D0040008D4040008F8B500BFF8BC08BC9C
:1004C0009E467047F8B500BFF8BC08BC9E46704712
:0404D00055010008CA
:0404D40031010008EA
:040000050800041DCE
:00000001FF
