:020000040800F2
:10000000005000208D090008C5080008D10800082C
:10001000D9080008E1080008E9080008000000000D
:10002000000000000000000000000000F1080008CF
:10003000FD08000800000000090900081509000873
:10004000DD090008DD090008DD090008DD090008F8
:10005000DD090008DD090008DD090008DD090008E8
:10006000DD090008DD090008DD090008DD090008D8
:10007000DD090008DD090008DD090008DD090008C8
:10008000DD090008DD090008DD090008DD090008B8
:10009000DD090008DD090008DD090008DD090008A8
:1000A000DD090008DD090008DD090008DD09000898
:1000B000DD090008DD090008DD090008DD09000888
:1000C000DD090008DD090008DD090008DD09000878
:1000D000DD090008DD090008DD090008DD09000868
:1000E000DD090008DD09000800000000DD09000846
:1000F000DD090008DD090008DD090008DD09000848
:10010000DD090008DD090008DD090008DD09000837
:10011000DD090008DD090008DD090008DD09000827
:10012000DD090008DD090008DD090008DD09000817
:1001300010B5054C237833B9044B13B10448AFF321
:1001400000800123237010BD5C000020000000002F
:100150003013000808B5034B1BB103490348AFF344
:10016000008008BD0000000060000020301300087F
:100170004FF0FF3C06E000BF4FF0010C02E000BF73
:100180004FF0010C4DF804CD4FEA40024FEA410315
:100190007FEA226C18BF7FEA236C11D001B052EACB
:1001A000530C18BF90EA010F58BFB2EB030088BF91
:1001B000C81738BF6FEAE17018BF40F00100704700
:1001C0007FEA226C02D15FEA402C05D17FEA236CE2
:1001D000E4D15FEA412CE1D05DF8040B704700BF29
:1001E000844608466146FFE70FB5FFF7C9FF0028C0
:1001F00048BF10F1000F0FBD4DF808EDFFF7F4FFF9
:100200000CBF012000205DF808FB00BF4DF808ED91
:10021000FFF7EAFF34BF012000205DF808FB00BFB4
:100220004DF808EDFFF7E0FF94BF012000205DF8D6
:1002300008FB00BF4DF808EDFFF7D2FF94BF012087
:1002400000205DF808FB00BF4DF808EDFFF7C8FF80
:1002500034BF012000205DF808FB00BF80B500AF6F
:10026000154B1B68144A43F001031360124B5A6884
:100270001149124B13404B600F4B1B680E4A23F081
:10028000847323F4803313600B4B1B680A4A23F4F6
:1002900080231360084B5B68074A23F4FE03536016
:1002A000054B4FF41F029A6000F00CF8044B4FF01E
:1002B00000629A6000BF80BD001002400000FFF89D
:1002C00000ED00E080B500AF00F002F800BF80BD97
:1002D00080B483B000AF00237B6000233B603A4BC7
:1002E0001B68394A43F480331360374B1B6803F4AF
:1002F00000333B607B6801337B603B68002B03D19C
:100300007B68B3F5A06FF0D12F4B1B6803F400336B
:10031000002B02D001233B6001E000233B603B68DF
:10032000012B4BD1294B1B68284A43F01003136063
:10033000264B1B68254A23F007031360234B1B68D9
:10034000224A43F0020313601F4B1F4A5B6853604D
:100350001D4B1D4A5B6853601B4B5B681A4A43F494
:1003600080635360184B5B68174A23F47C13536017
:10037000154B5B68144A43F4E8135360124B1B6837
:10038000114A43F08073136000BF0F4B1B6803F0EA
:100390000073002BF9D00C4B5B680B4A23F003036E
:1003A0005360094B5B68084A43F00203536000BF87
:1003B000054B5B6803F00C03082BF9D100BF0C3729
:1003C000BD4680BC704700BF0010024000200240C4
:1003D00080B483B000AF0346FB71FB7903F01F03C9
:1003E000012202FA03F1054A97F907305B0942F846
:1003F000231000BF0C37BD4680BC704700E100E011
:1004000080B500AF00F08AF800F06AF900F0E4F877
:1004100000F026F900F07CF900F0B4F9394B4FF404
:10042000FA729A864FF080434FF4FA729A8600F07F
:10043000BBF900F0D3F9344B1B6834491846FFF779
:10044000E5FE0346002B29D0314B1B68002B25DD30
:100450002C4B9B8E9BB2B3F5FA7F1FD1294B40F2F8
:10046000DC529A864FF4FA6000F00CFA284B1B68B5
:10047000002B04DD264B1B68013B254A136000F06E
:1004800093F900F0ABF91F4B4FF4FA729A864FF4D0
:10049000FA7000F0F7F91C4B1E4A1A601E4B1B68DD
:1004A0001A491846FFF7B2FE0346002B28D04FF03A
:1004B00080439B8E9BB2B3F5FA7FBCD14FF0804353
:1004C00040F2DC529A864FF4FA6000F0DBF9104BF0
:1004D0001B68132B04DC0E4B1B6801330C4A1360A2
:1004E00000F062F900F07AF94FF080434FF4FA72AD
:1004F0009A864FF4FA7000F0C5F9074B054A1A6066
:1005000099E700BF002C014004000020CDCCCC3D79
:10051000000000200000C6420800002080B400AFA8
:100520002A4B9B69294A43F00D039361284B1B68B2
:10053000274A23F00F031360254B1B68244A43F01E
:100540000B031360224B1B68214A23F4704323F0F2
:10055000F00313601E4B1B681D4A43F4804343F0B5
:10056000400313601A4B1B68194A23F4702323F4C9
:1005700070631360164B1B68154A43F4403343F411
:1005800040731360124B5B68114A23F00F035360F2
:100590000F4B5B680E4A43F00B0353600C4B5B68D8
:1005A0000B4A23F47F635360094B5B68084A43F4AA
:1005B00096635360074B4FF033321A60054B4FF090
:1005C00033325A6000BFBD4680BC70470010024005
:1005D00000080140000C014080B400AF1E4B9B6935
:1005E0001D4A43F4006393611C4B47221A851B4B41
:1005F00044F61F629A85194B1B8B9BB2174A43F036
:1006000060039BB21383154B1B8B9BB2134A43F0C1
:1006100008039BB21383114B1B8C9BB20F4A43F010
:1006200001039BB213840D4BB3F844309BB20B4AC9
:100630006FEA43436FEA53439BB2A2F84430074B3F
:100640001B889BB2054A43F001039BB2138000BF95
:10065000BD4680BC704700BF00100240002C014026
:1006600080B400AF1D4BDB691C4A43F00103D3612A
:100670004FF0804347221A854FF0804344F61F62B3
:100680009A854FF080431B8B9BB24FF0804243F022
:1006900060039BB213834FF080431B8B9BB24FF0E0
:1006A000804243F008039BB213834FF080431B8CBE
:1006B0009BB24FF0804243F001039BB213844FF092
:1006C00080431B889BB24FF0804243F001039BB2F2
:1006D000138000BFBD4680BC704700BF00100240C1
:1006E00080B400AF084B9B69074A43F48043936191
:1006F000064B41F64C521A81044B42F20C029A818D
:1007000000BFBD4680BC7047001002400038014069
:1007100080B500AF194B194A9B689360174B174A75
:100720009B689360164B1B68154A43F002031360E5
:10073000134B9B68124A43F002039360104BDB6833
:100740000F4A43F00203D3600D4B1B680C4A43F081
:10075000080313600A4B9B68094A43F0080393603F
:10076000074BDB68064A43F00803D3600720FFF716
:100770002FFE0920FFF72CFE00BF80BD00000140C6
:100780000004014080B400AF064B6FF07F425A6016
:10079000044B00229A60034B05221A6000BFBD463D
:1007A00080BC704710E000E080B586B000AF094B18
:1007B0001B68C3F114037B613B467A6906491846FE
:1007C00000F00EF93B46184600F03CF800BF183721
:1007D000BD4680BD000000204813000880B483B0EF
:1007E00000AF144B1968144B83FB01239A10CB17ED
:1007F000D21A13469B0013445B00CA1A0F4B53F8DE
:1008000022307B600B4B1B680B4A82FB0312921059
:10081000DB17D31A094A52F823303B603B681A02AF
:1008200007497B681343CB6000BF0C37BD4680BCD3
:10083000704700BF0000002067666666501300081E
:10084000000C014080B483B000AF78600EE000BFC0
:100850000B4B1B889BB203F04003002BF8D07B6846
:100860001A78074B9A807B6801337B607B681B7822
:10087000002BECD100BF00BF0C37BD4680BC7047D9
:100880000038014080B485B000AF0346FB800023F0
:10089000FB810DE00023BB6002E0BB680133BB605D
:1008A000BB6842F227329342F7D9FB890133FB81BF
:1008B000FA89FB889A42EDD300BF00BF1437BD46CA
:1008C00080BC704780B400AF00BFBD4680BC70479D
:1008D00080B400AF00BFFDE780B400AF00BFFDE70C
:1008E00080B400AF00BFFDE780B400AF00BFFDE7FC
:1008F00080B400AF00BFBD4680BC704780B400AF7D
:1009000000BFBD4680BC704780B400AF00BFBD468D
:1009100080BC704780B400AF00BFBD4680BC70474C
:1009200080B586B000AF7860144A154BD31A7B614E
:100930007B693B61134B1B68002B02D1114B124AA0
:100940001A60104B1A687B6813443A699A4207D2BE
:1009500000F068F803460C221A604FF0FF3309E0FC
:10096000084B1B68FB60074B1A687B681344054AF9
:100970001360FB6818461837BD4680BD0050002044
:100980000004000078000020C80100200D488546C2
:10099000FFF764FC0C480D490D4A002302E0D458CF
:1009A000C4500433C4188C42F9D30A4A0A4C0023B9
:1009B00001E013600432A242FBD300F039F8FFF7E4
:1009C0001FFDFEE700500020000000205C0000201A
:1009D000B41300085C000020C4010020FEE7000002
:1009E0000EB46FF0004110B500249DB01FAB029013
:1009F0000690079104910948094953F8042B059181
:100A0000006802A901931B9400F08AF9029B1C70F4
:100A10001DB0BDE8104003B0704700BF0C000020BF
:100A20000802FFFF014B1868704700BF0C00002050
:100A300070B500260C4D0D4C641BA410A64209D1C4
:100A400000F076FC00260A4D0A4C641BA410A64256
:100A500005D170BD55F8043B98470136EEE755F8CF
:100A6000043B98470136F2E7AC130008AC130008CA
:100A7000AC130008B01300087047704738B505463E
:100A8000002940D051F8043C0C1F002BB8BFE418DB
:100A900000F0DEF81C4A136833B96360146028461E
:100AA000BDE8384000F0DAB8A34208D92068211820
:100AB0008B4201BF19685B6809182160EDE71A468F
:100AC0005B680BB1A342FAD911685018A0420BD150
:100AD00020680144501883421160E0D118685B68B7
:100AE000084410605360DAE702D90C232B60D6E784
:100AF000206821188B4201BF19685B6809182160C2
:100B000063605460CBE738BDC001002070B50F4E64
:100B10000C463168054611B900F0A8FB306021464B
:100B2000284600F0A3FB431C03D14FF0FF342046BE
:100B300070BDC41C24F00304A042F8D0211A28463A
:100B400000F094FB0130F2D1EFE700BFBC010020C0
:100B50002DE9F843CD1C25F0030508350C2D38BFD1
:100B60000C25002D064601DBA94204D90C23336075
:100B70000020BDE8F883DFF8D48000F069F8D8F8E9
:100B800000301C4644BB29463046FFF7BFFF431CDC
:100B9000044658D1D8F800402746002F43D1002CF6
:100BA0004BD023683946304604EB030900F05EFB66
:100BB000814542D1216830466D1A2946FFF7A6FFCC
:100BC00001303AD023682B442360D8F800305A68AB
:100BD00062BBC8F800700FE02268521B20D40B2AB9
:100BE00017D96119A342256018BF5960636808BF0F
:100BF000C8F8001062514B60304600F02FF804F145
:100C00000B00231D20F00700C21A1CBF1B1AA350A3
:100C1000AFE76268A3420CBFC8F800205A60EBE758
:100C200023466468AEE73C467F68B6E71A465B68D1
:100C3000A342FBD100235360DEE70C233046336030
:100C400000F00CF894E70560D6E700BFC001002073
:100C50000148FFF711BF00BFB80100200148FFF7AE
:100C60000CBF00BFB80100202DE9F0471F468E6879
:100C70008246BE420C4690460B682DD8B1F90C2036
:100C800012F4906F26D06569096905EB4505A3EB61
:100C9000010905EBD5757B1C4B446D109D4238BF97
:100CA0001D46530527D52946FFF752FF064660B378
:100CB0004A46216900F0F8FAA38923F4906343F0CF
:100CC0008003A38126614E4426603E466561A5EB04
:100CD0000905A560BE4200D93E463246414620681D
:100CE00000F0AAFA0020A3689B1BA360236833448A
:100CF0002360BDE8F0872A4600F0E4FA06460028A3
:100D0000E0D150462169FFF7B9FE0C23CAF8003044
:100D1000A3894FF0FF3043F04003A381E9E70000CF
:100D20002DE9F04F98468B8907461B060D46144661
:100D30009DB010D50B6973B94021FFF709FF2860FA
:100D4000286130B90C233B604FF0FF301DB0BDE887
:100D5000F08F40236B610023099320238DF8293005
:100D600030234FF00109CDF80C80DFF898818DF821
:100D70002A3023469A4613F8012B0AB1252AF9D1C5
:100D8000BAEB040B0BD05B46224629463846FFF7E8
:100D90006BFF013000F0A780099A5A4409929AF833
:100DA0000030002B00F09F8000234FF0FF32CDE990
:100DB00005230AF1010A049307938DF853301A931F
:100DC0005446052214F8011B4E4800F05FFA049ABD
:100DD000D8B9D00644BF20238DF85330110744BF43
:100DE0002B238DF853309AF800302A2B15D0544617
:100DF00000204FF00A0C079A214611F8013B303BC6
:100E0000092B4BD9B0B1079214E0A0EB080309FA03
:100E100003F31343A2460493D2E7039B191D1B68F7
:100E20000391002BBBBF5B4242F002020793079382
:100E3000B8BF049223782E2B0AD163782A2B32D1A3
:100E4000039B02341A1D1B68039243EAE373059364
:100E5000DFF8B4A003225046217800F017FA38B129
:100E60004022049BA0EB0A00824013430134049308
:100E700014F8011B062225488DF8281000F006FA08
:100E8000002836D0224B1BBB039B073323F00703FC
:100E900008330393099B334409936AE70C46012006
:100EA0000CFB0232A8E700234FF00A0C194601346C
:100EB0000593204610F8012B303A092A03D9002B5C
:100EC000C6D00591C4E7044601230CFB0121F0E7DD
:100ED00003AB00932A4638460E4B04A9AFF30080BB
:100EE000421C0646D6D1AB895B063FF52DAF09986B
:100EF0002CE703AB00932A463846064B04A900F0C2
:100F00007DF8EDE7781300087E13000882130008CF
:100F100000000000690C00082DE9F04716469846CD
:100F20008A680B6907469342B8BF1346336091F84D
:100F300043200C46DDF820900AB10133336023686A
:100F4000990642BF336802333360256815F0060501
:100F500006D104F1190AE36832689B1AAB422BDC14
:100F600094F843302268003B18BF0123920630D426
:100F70004146384604F14302C847013023D0236874
:100F8000226903F00603042B14BF002533684FF0D9
:100F9000000608BFE56804F11A0408BFED1A54F80A
:100FA000123C08BF25EAE5759342C4BF9B1AED18B1
:100FB000B5421AD1002008E0012352464146384686
:100FC000C847013003D14FF0FF30BDE8F08701354D
:100FD000C1E73020E11881F843005A1C94F845100D
:100FE0002244023382F84310C2E7012322464146DD
:100FF0003846C8470130E6D00136D9E72DE9FF472A
:101000000F7E9146782F80460C469A460C9E01F141
:10101000430207D8622F0AD8002F00F0D180582F42
:1010200000F0B88004F1420684F842703AE0A7F17B
:101030006303152BF6D801A151F823F09510000891
:10104000A910000825100008251000082510000828
:1010500025100008A9100008251000082510000818
:101060002510000825100008A7110008D31000085B
:10107000611100082510000825100008C91100089A
:1010800025100008D31000082510000825100008BE
:101090006911000833681A1D1B68326004F14206AA
:1010A00084F8423001239CE033682068191D3160C8
:1010B000060601D51D6803E04506FBD5B3F90050CF
:1010C000002D03DA2D236D4284F843300A2358485B
:1010D00011E021683368080653F8045B02D449061E
:1010E00048BFADB26F2F336014BF0A2308235048A6
:1010F000002184F843106668002EA66005DB216895
:101100002E4321F0040121604BD01646B5FBF3F1CC
:1011100003FB1157C75D06F8017D2F46BB420D4604
:10112000F4D9082B0BD12368DF0708D52369616840
:101130009942DEBF302306F8013C06F1FF36921BD0
:1011400022614B4621464046CDF800A003AAFFF796
:10115000E3FE01304AD14FF0FF3004B0BDE8F08724
:10116000236843F0200323607827324884F84570D1
:10117000236831681F0651F8045B02D45F0648BF3C
:10118000ADB23160D90744BF43F0200323601DB1E5
:101190001023ADE72648E9E7236823F02003236006
:1011A000F6E71646BDE733682568181D61693060AB
:1011B0002E061B6801D5196002E06806FBD5198070
:1011C000002316462361BCE7336800211A1D3260F4
:1011D0001E686268304600F059F808B1801B6060F4
:1011E00063682361002384F84330AAE73246494606
:1011F00040462369D0470130ADD023689B0713D404
:10120000E068039B9842B8BF1846A6E70123324620
:1012100049464046D04701309DD00135E3680399E7
:101220005B1AAB42F2DCEBE7002504F11906F5E7A7
:10123000891300089A130008884210B501EB0204D4
:1012400002D98442234607D8431EA14208D011F890
:10125000012B03F8012FF8E7014602448A4200D12E
:1012600010BD13F8014D02F8014DF7E738B5002322
:10127000054D044608462B60FFF752FB431C02D184
:101280002B6803B1236038BDB4010020034610B5BC
:10129000C9B202449342184601D1002003E0047809
:1012A00001338C42F6D110BD0A44914200F1FF3364
:1012B00000D1704710B511F8014B914203F8014F6E
:1012C000F9D110BD2DE9F041074614460D4621B96C
:1012D0001146BDE8F041FFF73BBC2AB9FFF7CEFB52
:1012E00025462846BDE8F08100F01AF884420646FB
:1012F00002D8B4EB500FF4D821463846FFF728FC4B
:10130000804608B94546ECE7B4422246294628BF44
:101310003246FFF7C9FF29463846FFF7AFFBF1E732
:1013200051F8043C181F002BBCBF0B58C018704765
:10133000F8B500BFF8BC08BC9E467047F8B500BFC2
:08134000F8BC08BC9E46704792
:10134800253032640D0A00003F000000060000004E
:101358005B0000004F000000660000006D00000008
:101368007D000000270000007F0000006F000000E3
:10137800232D302B2000686C4C0065666745464776
:1013880000303132333435363738394142434445F9
:101398004600303132333435363738396162636468
:0413A8006566000076
:0413AC0055010008DF
:0413B00031010008FF
:1013B400140000000000C6420000C64210000020D5
:1013C400000000007C000020E40000204C0100200C
:1013D4000000000000000000000000000000000009
:1013E40000000000000000000000000000000000F9
:1013F40000000000000000000000000000000000E9
:0C140400000000000000000000000000DC
:040000050800098D59
:00000001FF
