:020000040800F2
:1000000000500020750300081903000825030008AC
:100010002D030008350300083D0300080000000020
:100020000000000000000000000000004503000880
:1000300051030008000000005D0300086903000888
:10004000C5030008C5030008C5030008C503000870
:10005000C5030008C5030008C5030008C503000860
:10006000C5030008C5030008C5030008C503000850
:10007000C5030008C5030008C5030008C503000840
:10008000C5030008C5030008C5030008C503000830
:10009000C5030008C5030008C5030008C503000820
:1000A000C5030008C5030008C5030008C503000810
:1000B000C5030008C5030008C5030008C503000800
:1000C000C5030008C5030008C5030008C5030008F0
:1000D000C5030008C5030008C5030008C5030008E0
:1000E000C5030008C503000800000000C5030008A0
:1000F000C5030008C5030008C5030008C5030008C0
:10010000C5030008C5030008C5030008C5030008AF
:10011000C5030008C5030008C5030008C50300089F
:10012000C5030008C5030008C5030008C50300088F
:1001300010B5054C237833B9044B13B10448AFF321
:1001400000800123237010BD00000020000000008B
:100150001004000808B5034B1BB103490348AFF373
:10016000008008BD0000000004000020100400080A
:1001700080B500AF154B1B68144A43F001031360B0
:10018000124B5A681149124B13404B600F4B1B68BE
:100190000E4A23F0847323F4803313600B4B1B68E7
:1001A0000A4A23F480231360084B5B68074A23F450
:1001B000FE035360054B4FF41F029A6000F00CF8E9
:1001C000044B4FF000629A6000BF80BD00100240F7
:1001D0000000FFF800ED00E080B500AF00F002F88D
:1001E00000BF80BD80B483B000AF00237B600023DC
:1001F0003B603A4B1B68394A43F480331360374BFA
:100200001B6803F400333B607B6801337B603B6811
:10021000002B03D17B68B3F5A06FF0D12F4B1B6887
:1002200003F40033002B02D001233B6001E00023E4
:100230003B603B68012B4BD1294B1B68284A43F09C
:1002400010031360264B1B68254A23F00703136035
:10025000234B1B68224A43F0020313601F4B1F4AC3
:100260005B6853601D4B1D4A5B6853601B4B5B68AA
:100270001A4A43F480635360184B5B68174A23F4AF
:100280007C135360154B5B68144A43F4E8135360C6
:10029000124B1B68114A43F08073136000BF0F4B71
:1002A0001B6803F00073002BF9D00C4B5B680B4A02
:1002B00023F003035360094B5B68084A43F00203D1
:1002C000536000BF054B5B6803F00C03082BF9D1AA
:1002D00000BF0C37BD4680BC704700BF0010024015
:1002E0000020024080B400AF094B9B69084A43F0EC
:1002F000FC039361074B4FF033321A60054B4FF00C
:1003000033325A60034B4AF6AA22DA60FAE700BF9A
:1003100000100240000C014080B400AF00BFBD4699
:1003200080BC704780B400AF00BFFDE780B400AF71
:1003300000BFFDE780B400AF00BFFDE780B400AFB1
:1003400000BFFDE780B400AF00BFBD4680BC704772
:1003500080B400AF00BFBD4680BC704780B400AF22
:1003600000BFBD4680BC704780B400AF00BFBD4633
:1003700080BC70470D488546FFF7FAFE0C480D49D2
:100380000D4A002302E0D458C4500433C4188C42F0
:10039000F9D30A4A0A4C002301E013600432A24256
:1003A000FBD300F011F8FFF79DFFFEE7005000209F
:1003B00000000020000000203004000800000020A1
:1003C0001C000020FEE7000070B500260C4D0D4C0F
:1003D000641BA410A64209D100F01AF800260A4DA9
:1003E0000A4C641BA410A64205D170BD55F8043B0D
:1003F00098470136EEE755F8043B98470136F2E797
:100400002804000828040008280400082C04000818
:10041000F8B500BFF8BC08BC9E467047F8B500BFF1
:08042000F8BC08BC9E467047C1
:040428005501000872
:04042C003101000892
:040000050800037577
:00000001FF
